{
  "contractName": "Counter",
  "abi": [
    {
      "anonymous": false,
      "inputs": [
        {
          "indexed": false,
          "internalType": "string",
          "name": "_message",
          "type": "string"
        }
      ],
      "name": "CounterDecrement",
      "type": "event"
    },
    {
      "anonymous": false,
      "inputs": [
        {
          "indexed": false,
          "internalType": "string",
          "name": "_message",
          "type": "string"
        }
      ],
      "name": "CounterIncrement",
      "type": "event"
    },
    {
      "constant": false,
      "inputs": [],
      "name": "increment",
      "outputs": [],
      "payable": false,
      "stateMutability": "nonpayable",
      "type": "function"
    },
    {
      "constant": false,
      "inputs": [],
      "name": "decrement",
      "outputs": [],
      "payable": false,
      "stateMutability": "nonpayable",
      "type": "function"
    },
    {
      "constant": true,
      "inputs": [],
      "name": "getCount",
      "outputs": [
        {
          "internalType": "uint256",
          "name": "",
          "type": "uint256"
        }
      ],
      "payable": false,
      "stateMutability": "view",
      "type": "function"
    }
  ],
  "bytecode": "0x60806040526000805534801561001457600080fd5b506101aa806100246000396000f3fe608060405234801561001057600080fd5b50600436106100415760003560e01c80632baeceb714610046578063a87d942c14610050578063d09de08a1461006e575b600080fd5b61004e610078565b005b6100586100f2565b6040518082815260200191505060405180910390f35b6100766100fb565b005b600160008082825403925050819055507ff1bf606ea12003a0fd1a58f15993e31add54f641749ab990da94e4b6b38fa5896040518080602001828103825260168152602001807f436f756e7465722069732064656372656d656e7465640000000000000000000081525060200191505060405180910390a1565b60008054905090565b600160008082825401925050819055507fd30e5fcb29fdd9424a18c50b1d46c3505856c1f9fabea7ae246e628bf44c360b6040518080602001828103825260168152602001807f436f756e74657220697320696e6372656d656e7465640000000000000000000081525060200191505060405180910390a156fea265627a7a723158204e4b3adf95b38c15b789ebacb347536ffc94e93c93b2696f2c71b9b25ac5f0ed64736f6c63430005100032",
  "source": "// SPDX-License-Identifier: MIT\r\npragma solidity >=0.4.21 <0.7.0;\r\n\r\ncontract Counter {\r\n    uint private count = 0;\r\n\r\n    event CounterIncrement(string _message);\r\n    event CounterDecrement(string _message);\r\n\r\n    function increment() public {\r\n        count += 1;\r\n        emit CounterIncrement(\"Counter is incremented\");\r\n    }\r\n\r\n    function decrement() public {\r\n        count -= 1;\r\n        emit CounterDecrement(\"Counter is decremented\");\r\n    }\r\n\r\n    function getCount() public view returns (uint) {\r\n        return count;\r\n    }\r\n}",
  "sourcePath": "D:\\blockchain\\counter-contract\\contracts\\Counter.sol",
  "compiler": {
    "name": "solc",
    "version": "0.5.16+commit.9c3226ce.Emscripten.clang"
  },
  "schemaVersion": "3.2.0",
  "updatedAt": "2020-08-28T11:50:02.532Z",
  "networkType": "ethereum",
  "devdoc": {
    "methods": {}
  },
  "userdoc": {
    "methods": {}
  }
}